:020000040800F2
:100000006807002089010008EF1C0008291B000870
:10001000ED1C0008650300083D20000800000000FA
:10002000000000000000000000000000F31C0008B9
:100030006703000800000000F11C0008F51C000820
:10004000A3010008A3010008A3010008A301000800
:10005000A3010008A3010008A3010008A3010008F0
:10006000A3010008A3010008A3010008A3010008E0
:10007000A3010008A3010008A3010008A3010008D0
:10008000A3010008A3010008A3010008A3010008C0
:10009000A3010008A3010008A3010008A3010008B0
:1000A000A3010008A3010008A3010008A3010008A0
:1000B000691D0008A3010008A3010008A3010008AE
:1000C000A3010008A3010008A3010008A301000880
:1000D000A3010008A3010008A301000831200008C3
:1000E000A3010008A3010008A301000800F002F822
:1000F00000F03AF80AA090E8000C82448344AAF188
:100100000107DA4501D100F02FF8AFF2090EBAE885
:100110000F0013F0010F18BFFB1A43F0010318473B
:1001200088280000A8280000103A24BF78C878C1A9
:10013000FAD8520724BF30C830C144BF04680C60ED
:10014000704700000023002400250026103A28BF35
:1001500078C1FBD8520728BF30C148BF0B60704739
:100160001FB51FBD10B510BD00F058F81146FFF7C0
:10017000F7FF01F081FF00F076F803B4FFF7F2FF1C
:1001800003BC00F07DF8000009488047094800479B
:10019000FEE7FEE7FEE7FEE7FEE7FEE7FEE7FEE737
:1001A000FEE7FEE704480549054A064B7047000094
:1001B000651D0008ED0000086801002068070020A8
:1001C00068030020680300204FF0000200B51346CA
:1001D00094469646203922BFA0E80C50A0E80C5067
:1001E000B1F12001BFF4F7AF090728BFA0E80C5018
:1001F00048BF0CC05DF804EB890028BF40F8042B11
:1002000008BF704748BF20F8022B11F0804F18BF7D
:1002100000F8012B7047704770477047754600F033
:100220002BF8AE4605006946534620F00700854688
:1002300018B020B5FFF7B6FFBDE820404FF000062C
:100240004FF000074FF000084FF0000B21F00701BE
:10025000AC46ACE8C009ACE8C009ACE8C009ACE801
:10026000C0098D46704710B50446AFF300802046A4
:10027000BDE81040FFF781BF00487047040100202F
:1002800001491820ABBEFEE72600020070470000BF
:1002900070B5044600688168C943C90717D18168F1
:1002A00021F00101816000F031FC05460AE000BF49
:1002B00000F02CFC401B022804D920688068C04351
:1002C000C00706D020688068C043C007F0D0002077
:1002D00070BDA06A40F01000A062E06A40F001002A
:1002E000E062012070BD0000F8B5002604460096CB
:1002F00000688168C943C9072DD0816841F00101B8
:100300008160164816490068B0FBF1F000E0401E1D
:1003100000900028FBD100F0F9FB054616E000BF75
:1003200000F0F4FB401B022810D920688068C0430D
:10033000C0070BD0A06A40F01000A062E06A40F055
:100340000100E06284F824600120F8BD2068806824
:10035000C043C007E4D10020F8BD000034000020F5
:1003600040420F00FEE77047F8B50024009490F873
:1003700024202546012A12D0012280F824204A6830
:100380001F23072A0DD20668776B521E02EB8202EA
:1003900093409F430B6893401F43776319E002200B
:1003A000F8BD06680D2A0AD2376BD21F02EB820213
:1003B00093409F430B6893401F43376309E0F76AFC
:1003C0000D3A02EB820293409F430B6893401F4318
:1003D000F7620A68072306680A2A0AD3F7680A3A06
:1003E00002EB420293409F438B6893401F43F760A8
:1003F00008E0376902EB420293409F438B689340C9
:100400001F4337610A68102A01D0112A20D1124BEC
:1004100002689A4217D193681B0219D4936843F477
:10042000000393600968102912D10C490C4A09682D
:10043000B1FBF2F101EB8101490000E0491E00919E
:100440000029FBD104E0816A41F02001816201248E
:1004500080F824502046F8BD0024014034000020DC
:1004600040420F00806A70470068C06C704700000F
:100470002DE9F0414FF0000704003D467ED0A06A10
:10048000002628B9E66284F82460204600F07EF851
:100490002046FFF7FDFEA16A01F01001014304D0E0
:1004A000A06A40F01000A06268E0A16A21F48851BF
:1004B00041F00201A1626268E169237B0A4347EAD5
:1004C00043010A43A1684FF48077B94208D001295B
:1004D00006D0002194F814C0BCF1010F02D00AE04C
:1004E0003946F7E7F3B1A36A43F02003A362E36A56
:1004F00043F00103E3622368D3F804C02CF4694C91
:100500004CEA010CC3F804C023689968DFF870C096
:1005100001EA0C0111439960A168B9420BD001298D
:1005200009D00CE0DFF85CC0A3690CEB43330B434C
:1005300043F40061DFE7218A0D05A5F580152168E8
:10054000CB6A23F470032B43CB62216889680E4B7E
:100550001940914208D1E662A16A21F0020141F0FE
:100560000101A162BDE8F081A06A20F0020040F024
:100570001000A062E06A40F00100E0620120F1E7B3
:10058000FDF7E1FF00E0FFFFFE0E1FFF00B585B0A5
:100590000021009101910291039100680E49884267
:1005A00017D10E48816941F400718161816901F4BC
:1005B00000710491816941F004018161806969469B
:1005C00000F004000490032000900190044800F023
:1005D000A3F905B000BD0000002401400010024056
:1005E000000801402DE9F84300270D460446009716
:1005F00000F08CFA804620688168C90508D5A06A99
:1006000040F02000A06284F824700120BDE8F88347
:100610004168C90503D4C06A10F4700F2AD00220C3
:1006200000F012FB3B490968B1FBF0F62068036952
:1006300039490B424FEA61014FEAA1121FD1C36849
:100640004FEA611C13EA0C0F19D103690B4225D143
:10065000C068104222D1142023E0681C0AD02DB1BA
:1006600000F054FAA0EB0800A84203D92068006803
:10067000800725D5206800688007EED52DE0036946
:100680000B4202D1C168114206D0026923490A42D5
:1006900006D1C068084203D1542002E0292000E0BE
:1006A000FC204643009816E0681C11D02DB100F0E4
:1006B0002DFAA0EB0800A8420AD90098B04207D250
:1006C000A06A40F00400A06284F8247003209DE733
:1006D0000098401C0090B042E6D321686FF01200F1
:1006E0000860A06A40F40070A06220688068C0F3CF
:1006F000424007280CD1207B50B9A06A20F48070BA
:10070000A062A06AC00403D4A06A40F00100A06205
:1007100000207BE7340000202449922449922400E1
:1007200070B5044690F8240001280DD0012084F80B
:1007300024002046FFF7D8FD02004FF0000005D04E
:1007400084F82400104670BD022070BDA16A40F2FA
:100750000123994341F48071A1621F4D23681F4911
:10076000AB4218D10E6816F4702F14D0A66A46F466
:100770008016A6620E68760505D5A66A26F4005690
:1007800046F48056A662A66AF6040AD5E66A26F002
:100790000606E66206E0A66A26F48016A6625E6891
:1007A000E9E7E06284F824006FF002001860206836
:1007B0008368C3F34243072B05D1A84208D10968D7
:1007C00011F4702F04D0816841F480118160B9E781
:1007D000816841F4A001F9E70028014004240140A8
:1007E00010B5044690F82400012807D0012084F8B1
:1007F00024002046FFF74CFD10B107E0022010BD99
:10080000A16A21F4885141F00101A162002184F81C
:10081000241010BD10B590F821100022022905D037
:100820000421816380F82020012010BD01680B683D
:1008300023F00E030B6001680B6823F001030B60CB
:1008400090F84030C46B012101FA03F3636080F833
:10085000211080F82020104610BD000010B590F83F
:1008600021100024022903D00421816301243DE0EA
:1008700001680A6822F00E020A6001680A6822F024
:1008800001020A601A4A0168914201D1012121E066
:10089000174A1432914201D110211BE0144A283228
:1008A000914201D1891515E0114A3C32914201D1A2
:1008B00089140FE00E4A5032914202D14FF4803138
:1008C00008E00B4A6432914202D14FF4801101E0FA
:1008D0004FF08071064A083A5160012180F82110DA
:1008E000002180F82010416B01B18847204610BDDF
:1008F0000800024070B5044600F008F90546601C87
:1009000002D004480078044400F000F9401BA042E3
:10091000FAD370BD280000202DE9F84FDFF8B89118
:10092000002409F1040A0AF1040B23460F270BF1F6
:10093000040EC9E00125A5402A40AA427DD1674E98
:10094000D1F804C0ACEB0608B44532D014DCBCF1DD
:10095000030F3AD009DCBCF1000F2AD0BCF1010F23
:100960001CD0BCF1020F31D11DE0BCF1110F17D02A
:10097000BCF1120F2AD119E0B8F5881F19D006DC96
:10098000B8F5803F15D0B8F5801F1FD111E0B8F53C
:10099000001F0ED0B8F5041F18D10AE0CB6815E08F
:1009A000CB681B1D12E0CB6808330FE0CB680C331B
:1009B0000CE08B682BB1012B4FF0080303D045618D
:1009C00004E0042302E0056100E00023FF2A01D8CF
:1009D000064601E000F104064FEA840501D9A5F1BD
:1009E0002005D6F8008007FA05FC28EA0C0803FA6F
:1009F00005F548EA0508C6F800804D68ED0062D5A7
:100A0000374DAE6946F00106AE61AD6924F00306CC
:100A100005F001050095334D06EB050CDCF8085098
:100A2000A607360F07FA06F825EA0805DFF8B880AA
:100A3000404503D14FF0000817E044E0DFF8AC80F8
:100A4000404502D14FF001080FE0DFF8A480404597
:100A500002D14FF0020808E0DFF89880404502D14B
:100A60004FF0030801E04FF0040808FA06F848EADE
:100A70000508CCF808804D68D9F80060ED034D46B4
:100A800001D5164300E096432E604D68DAF8006009
:100A9000AD03554601D5164300E096432E604D68E0
:100AA000DBF80060ED025D4601D5164300E0964399
:100AB0002E604D68DEF80060AD02754601D5164324
:100AC00000E096432E60641C0D682A46E5407FF4E2
:100AD00031AFBDE8F88F00000004014000001110A4
:100AE000001002400000014000080140000C0140DD
:100AF00000100140001401408068084000D001202F
:100B000070470AB1016170470904FBE7014880683A
:100B100070470000280000200248816802781144D4
:100B20008160704728000020074810B5016841F037
:100B300010010160032000F075F80F2000F006F8A6
:100B400000F024F8002010BD0020024070B50D4DCB
:100B500004464FF47A712878B1FBF0F00A4909682D
:100B6000B1FBF0F000F0C6FB48B9102C07D2002210
:100B70002146501E00F036F800206C6070BD012048
:100B800070BD000028000020340000200C4808B58B
:100B9000816941F001018161816901F001010091E8
:100BA000C16941F08051C161C06900F0805000907E
:100BB0000448416821F0E06141F00071416008BDE6
:100BC0000010024000000140002809DB00F01F0275
:100BD000012191404009800000F1E020C0F800119F
:100BE00070470000F0B40E4B1B680C46C3F30223A1
:100BF000C3F10705042D00D90425191D072901D2C9
:100C0000002300E0DB1E012606FA05F1491E214003
:100C100099409E40761E16403143F0BC01F00FBA59
:100C20000CED00E0064900F0070208684FF6FF03EC
:100C3000184040EA0220034A104308607047000051
:100C40000CED00E00000FA0510B529A401461DCC0A
:100C500086B08DE81D002AA02A4C00680490002070
:100C6000012923D002293AD010291DD161682268B8
:100C7000D20119D5C1F38342C9031DF8020009D579
:100C8000616804AAC1F34041515C1F4AB2FBF1F113
:100C9000484301E01D4948436168490204D44000CB
:100CA0005FF00301B0FBF1F006B010BD226AC2F3A1
:100CB0000121012903D1920701D5C803F4E70229D4
:100CC00005D1626A920702D549F64040ECE7032954
:100CD000EAD121688903E7D54FF22440E4E700F028
:100CE00033F96168C1F38131491C4900DAE700003A
:100CF00002030405060708090A0B0C0D0E0F10105D
:100D0000010200000010024000127A0000093D00BC
:100D10002DE9F84305460078354CC00754D0E0690A
:100D20000026C00008D4E06940F08050E061E0692E
:100D3000012600F0805000902E480168C90512D4A9
:100D40000168804641F480710160FFF7DFFE0746CD
:100D500005E000BFFFF7DAFEC01B642823D8D8F8EF
:100D60000000C005F6D5206A10F4407021D0A98893
:100D700001F4407181421CD0206A1F49012220F4F5
:100D800040700A6000220A602062C00711D0FFF79D
:100D9000BDFE074641F2883808E000BFFFF7B6FE07
:100DA000C11B414502D90320BDE8F883206A8007B2
:100DB000F4D5206A696820F44070084320621EB1AF
:100DC000E06920F08050E0612878800705D56068F0
:100DD000A96820F44040084360602878C00605D523
:100DE0006068E96820F48000084360600020DBE769
:100DF0000010024000700040400442422DE9F047DC
:100E00000F46050061D0434E306800F00700B8423D
:100E100009D2306820F0070038433060306800F0B5
:100E20000700B84251D128683B4C810712D54007D2
:100E300003D5606840F4E06060602878000703D55F
:100E4000606840F4605060606068A96820F0F0005D
:100E5000084360602878C00728D06868012810D04F
:100E60002168022810D0890700292EDA616821F054
:100E7000030101436160FFF749FE804641F2883972
:100E80000DE021688903EFE78901EDE7FFF73EFEFA
:100E9000A0EB0801494502D90320BDE8F08760684E
:100EA000696800F00C00B0EB810FEFD1306800F002
:100EB0000700B8420BD9306820F007003843306093
:100EC000306800F00700B84201D00120E5E728783B
:100ED000400705D56068E96820F4E0600843606079
:100EE0002878000706D56068296920F4605040EA38
:100EF000C100606000F038F86168084AC1F303116E
:100F0000515CC8400649086006480068FFF71EFEAD
:100F10000020C2E700200240001002409029000893
:100F2000340000202C00002004480549006849686E
:100F3000044AC1F30221515CC840704734000020CC
:100F400000100240A02900080448054900684968CB
:100F5000044AC1F3C221515CC840704734000020EC
:100F600000100240A029000812A185B00FC98DE829
:100F70000F0014A0144A006804905168134801F04F
:100F80000C03042B10D0082B0ED1C1F38343C903EB
:100F90001DF803000AD5516804AAC1F34041515C11
:100FA0000A4A5043B0FBF1F005B070470849484386
:100FB000FAE7000002030405060708090A0B0C0DF6
:100FC0000E0F1010010200000010024000127A0003
:100FD00000093D002DE9F84F040070D02078C04D85
:100FE000C00749D06868C0F38100012807D068684D
:100FF000C0F38100022809D16868C00306D52868BB
:10100000800339D560680028E7D035E06068B0F526
:10101000803F0BD010B1B0F5A02F11D0286820F47C
:1010200080302860286820F4802002E0286840F49E
:1010300080302860606890B1FFF768FD06460AE0DE
:10104000286840F480202860F0E700BFFFF75EFDCD
:10105000801B642873D828688003F7D50CE0FFF75D
:1010600055FD064605E000BFFFF750FD801B6428D4
:10107000F0D828688003F7D420789A4E80074FF084
:1010800001094FF0000839D5686810F00C0F07D03F
:101090006868C0F38100022809D16868C00306D4DB
:1010A0002868800714D52069012808D110E020693C
:1010B000B0B1C6F80090FFF729FD074605E00AE148
:1010C000FFF724FDC01B0228C4D828688007F7D585
:1010D0002868616920F0F80040EAC10028600DE04E
:1010E000C6F80080FFF712FD074604E0FFF70EFD8B
:1010F000C01B022823D828688007F7D4207800076F
:101100002CD57948A169D9B1C0F80090FFF7FEFC51
:10111000074604E0FFF7FAFCC01B02280FD8686AF4
:101120008007F7D571484FF4FA510068B0FBF1F031
:10113000009000BF0098411E0091FAD20EE080E0BE
:10114000C0F80080FFF7E2FC074604E0FFF7DEFC92
:10115000C01B022875D8686A8007F7D4207840073A
:1011600060D5E8690027C00008D4E86940F08050E5
:10117000E861E869012700F0805000905C48016850
:10118000C90513D40168834641F480710160FFF7FB
:10119000BDFC824606E000BFFFF7B8FCA0EB0A00EA
:1011A00064284ED8DBF80000C005F5D5E0680128BA
:1011B0000AD008B1052813D0286A20F0010028625F
:1011C000286A20F0040002E0286A40F0010028624A
:1011D000E06841F2883B98B1FFF798FC82460BE04B
:1011E000286A40F004002862EEE700BFFFF78EFC9B
:1011F000A0EB0A0159455AD8286A8007F6D50CE0B9
:10120000FFF784FC824605E0FFF780FCA0EB0A01B3
:1012100059454CD8286A8007F6D41FB1E86920F0F8
:101220008050E861E06988B36968C1F381010229EF
:1012300044D00228C6F8608004D0FFF767FC04465B
:1012400038E034E0FFF762FC074604E0FFF75EFC9D
:10125000C01B02282BD828688001F7D4206AB0F57B
:10126000803F05D16868A16820F4003008436860B9
:10127000D4E908010843696821F4741108436860DF
:10128000C6F86090FFF742FC044606E025E000BF88
:10129000FFF73CFC001B022809D828688001F7D51D
:1012A0001BE000BFFFF732FC001B022802D903201D
:1012B000BDE8F88F28688001F4D40EE00128F7D04B
:1012C0006868226A00F48031914204D1616A00F4B6
:1012D0007010884201D00120EAE70020E8E7000012
:1012E00000100240000042428004424234000020CC
:1012F0000070004010B5401EB0F1807F01D3012086
:1013000010BD4FF0E02460610F21601700F097FEE0
:101310000020A06107202061002010BD70477047A9
:1013200070B590F83C20012A26D0012480F83C407A
:10133000022280F83D2003685A689D6822F07006FA
:101340000A6832435A600D4B02689A4208D0B2F1E3
:10135000804F05D00A4B9A4202D00A4B9A4204D1E0
:10136000496825F080031943916080F83D400021D1
:1013700080F83C10084670BD022070BD002C014072
:10138000000400400008004010B5040003D094F8A9
:101390003D0010B107E0012010BD002084F83C00A2
:1013A000204600F01FF8022084F83D00211D20682F
:1013B00000F0E0FC012084F8460084F83E0084F848
:1013C0003F0084F8400084F8410084F8420084F82B
:1013D000430084F8440084F8450084F83D00002070
:1013E00010BD000008B50068B0F1804F12D10A4866
:1013F000C16941F00101C161C069002200F0010032
:10140000009011461C20FFF7EDFBBDE808401C20B2
:10141000FFF7DABB08BD00000010024090F83D1055
:10142000012901D001207047022180F83D10016898
:10143000CA6842F00102CA6000680B49884208D0BD
:10144000B0F1804F05D00949884202D0084988424E
:1014500004D1816801F00701062903D0016841F039
:101460000101016000207047002C01400004004091
:101470000008004070B5044690F83C00012817D0E1
:10148000012584F83C50022084F83D0020688268E1
:1014900022F0770222F47F4282600868502830D020
:1014A0000DDC20284DD005DC98B310283BD148E056
:1014B000022070BD302844D0402834D139E0602863
:1014C00028D0702806D0B0F5805F2CD0B0F5005F32
:1014D00029D10AE0CB68D1E90121206800F080FC25
:1014E0002068816841F0770109E0CB68D1E90121EA
:1014F000206800F075FC2068816841F480418160BB
:1015000011E0CA684968206800F07CFC502120681E
:1015100007E016E0CA684968206800F084FC602192
:10152000206800F067FC84F83D50002084F83C00FF
:1015300070BDCA684968206800F064FC40212068DA
:10154000EFE7226801461046EBE7704770B50446A6
:10155000006801694FF00005C943890715D4C168C7
:10156000C943890711D4E91E016101202077206851
:1015700080698007204602D0FFF7E7FF04E000F013
:1015800098F8204600F096F8257720680169C9434D
:10159000490717D4C168C943490713D46FF0040140
:1015A0000161022020772068806910F4407F204686
:1015B00002D0FFF7CAFF04E000F07BF8204600F0FD
:1015C00079F8257720680169C943090716D4C168ED
:1015D000C943090712D46FF0080101610420207784
:1015E0002068C0698007204602D0FFF7AEFF04E004
:1015F00000F05FF8204600F05DF82577206801696B
:10160000C943C90617D4C168C943C90613D46FF0CA
:1016100010010161082020772068C06910F4407F24
:10162000204602D0FFF791FF04E000F042F8204688
:1016300000F040F8257720680169C943C90708D13F
:10164000C168C943C90704D1891E0161204600F061
:1016500033F820680169C943090609D4C168C94340
:10166000090605D46FF0800101612046FFF756FEA0
:1016700020680169C943490609D4C168C9434906BC
:1016800005D46FF040010161204600F091F8206818
:101690000169C94389060BD4C168C943890607D4C7
:1016A0006FF0200101612046BDE87040FFF737BEB2
:1016B00070BD7047704700002DE9F05F0068B0F121
:1016C000804F69D1374CE07C012865D12046364EE9
:1016D00042690025711423793448521C4FF4006A82
:1016E0004FF4806B4FF4FA67626143B1BA4253D34F
:1016F000BA421AD1BDE8F05F0122FFF702BA012217
:1017000089468046FFF7FDF96069B84202D2207829
:10171000012806D001202071002249464746404654
:101720000DE0BDE8F05F00F04FBEB2F57A6F02D277
:101730006278012A32D02571E57400220746FFF74E
:10174000E0F9002251463046FFF7DBF90022594606
:101750003046FFF7D6F9002202213846FFF7D1F9CB
:10176000002201213846FFF7CCF900224FF4007126
:101770003046FFF7C6F900224FF480713046FFF77C
:10178000C0F9002280213046FFF7BBF9002240213A
:101790003046FFF7B6F96561BDE8F09FBDE8F05F40
:1017A00000F0ACBE0000002000080140000C014029
:1017B0007047704770470000F8B50268044610682B
:1017C000D168536910F00F0F4FF0000554D003F0AB
:1017D000010601F4907737435FD0C20705D0CA05F0
:1017E00003D5226C42F001022264420705D5DA07D4
:1017F00003D0226C42F002022264820705D5DA0788
:1018000003D0226C42F004022264020707D501F0E3
:101810002002324303D0226C42F008022264226C80
:10182000002A35D0800604D5880602D5204600F06F
:101830002CFB20684069216CC0F3801001F0080186
:101840000143204625D000F008FB20684169490685
:101850001BD5416921F040014161A06BA8B15849F5
:101860004163A06BFEF7FAFF002811D0A06B416B1B
:1018700001B0BDE8F040084783060ED58B060CD5B5
:101880002046BDE8F84000F000BB2046FFF792FF7D
:10189000F8BDFFF78FFF2564F8BD266B2023012ECE
:1018A00052D1C60650D5CE064ED51068506800906D
:1018B000506940062AD5A16B086840680004000CF6
:1018C000EAD0A68D8642E7D9E0858869202818D01D
:1018D000D06820F48070D0602068416921F0010157
:1018E00041612068416921F04001416184F83E3046
:1018F00025632068C16821F01001C160A06BFEF76C
:1019000089FFA08DE18D401A81B219E0A08DE18D93
:10191000401A81B2E08D0028BED00029BCD0D0682A
:1019200020F49070D0602068426922F00102426188
:1019300084F83E3025632068C26822F01002C2603D
:101940002046FFF736FFF8BD05062BD50D0629D535
:1019500094F83D002128F6D1A068B0F5805F01D150
:101960002069B0B1206A411C21622168007848607A
:10197000E08C401E0004000CE084E4D12068C168C3
:1019800021F08001C1602068C16841F04001C16060
:10199000F8BD206A0088C0F308005060206A801CEF
:1019A0002062E5E74006F3D54806F1D5D168204628
:1019B00021F04001D16084F83D3000F0B4F8F8BD6A
:1019C0004B1E000870B5040004D094F83D000025BB
:1019D00010B106E0012070BD84F83C50204600F0B4
:1019E00023F8242084F83D002068C16821F40051C8
:1019F000C160204600F0A4FA2068016921F49041FA
:101A000001612068416921F02A0141612068C168B3
:101A100041F40051C1602564202084F83D0084F821
:101A20003E00002070BD000030B585B00024009459
:101A30000194029403940068184988422CD11848F4
:101A4000C16941F48021C161C16901F4802104911F
:101A5000816941F0080181618069124D00F0080040
:101A600004904FF4806000900220019003200390C6
:101A700069462846FEF750FFE814CDE900046946A0
:101A800028460294FEF748FF002211462720FFF760
:101A9000A9F82720FFF798F805B030BD00480040AE
:101AA00000100240000C014090F83E30202B0ED177
:101AB00059B152B190F83C30012B08D0012380F885
:101AC0003C300023036300F097BA012070470220E6
:101AD0007047000000680349884201D100F0A8BDAA
:101AE000704700000048004090F83D30202B18D18E
:101AF000A9B1A2B190F83C30012B12D001628284CE
:101B0000C28400210164212280F83D2080F83C102D
:101B10000068C16841F08001C16000207047012069
:101B20007047022070477047FEE70000FEB50025B1
:101B30001648009501951449029501608915816048
:101B4000057301240475022606614FF46021456087
:101B5000C0E90641FEF78CFC08B172B6FEE7CDE99C
:101B60000054694609480295FEF7FEFB08B172B6BB
:101B7000FEE7CDE9004669460448FEF7F5FB00287C
:101B800001D072B6FEE7FEBD0024014038000020FF
:101B90002DE9F04F85B00024374800940194029459
:101BA0000394816941F010018161816901F01001A4
:101BB0000491816941F020018161816901F0200176
:101BC0000491816941F004018161816901F004019E
:101BD0000491816941F0080181618069DFF89C907E
:101BE00000F008004FF400550490002229464846B2
:101BF000FEF787FFDFF888A048F6CC770022394649
:101C00005046FEF77EFFDFF87CB042F2CB38002270
:101C100041465846FEF775FF0095022601250396BA
:101C2000CDE9015469464846FEF776FE00970396D3
:101C3000CDE9015469465046FEF76EFE3020CDE9ED
:101C40000004694650460294FEF766FECDF8008017
:101C50000396CDE9015469465846FEF75DFE4FF400
:101C60004040CDE90004694658460294FEF754FE10
:101C700005B0BDE8F08F00000010024000100140E8
:101C800000080140000C014010B586B00024164841
:101C9000009401940294039404944FF080410594BD
:101CA00001600F21C0E9011440F21F31C0E90314A3
:101CB0008461FFF769FB08B172B6FEE74FF480500C
:101CC000009069460848FFF7D5FB08B172B6FEE7F9
:101CD000049404A904480594FFF722FB002801D0CE
:101CE00072B6FEE706B010BD68000020FEE7FEE712
:101CF00070477047FEF710BF30B593B02821684693
:101D0000FEF762FA14210AA8FEF75EFA0024012009
:101D10000F9410941194010412948DE81300049010
:101D2000CDE90814022507956846FFF753F908B175
:101D300072B6FEE70F200A90CDE90B540D940021F6
:101D40000AA80E94FFF75AF808B172B6FEE70FA87A
:101D50000F951194FEF7DCFF002801D072B6FEE764
:101D600013B030BD704700000148FFF7EFBB000023
:101D700068000020F0B50268164B174C174D4FF065
:101D80008047984205D0B84203D0A04201D0A84273
:101D900003D122F070064A683243984205D0B84217
:101DA00003D0A04201D0A84203D122F44074CA68F3
:101DB00022434C6922F08002224302608A68C26298
:101DC0000A688262984201D1096901630121416177
:101DD000F0BD0000002C014000040040000800405D
:101DE00010B5846842EA032224F47F440A43224364
:101DF000826010BD826822F070020A4342F007013F
:101E00008160704710B5036A046A24F0010404621B
:101E1000846924F0F00444EA021423F00A020A431D
:101E20008461026210BD10B5036A23F010030362DF
:101E30008369046A23F4704343EA023224F0A00366
:101E400043EA01118261016210BD10B5406A0021B0
:101E5000C185C184FFF7AEFC10BD0168CA6822F4D9
:101E60009072CA6001684A6922F001024A61016BFE
:101E7000012904D10168CA6822F01002CA60202139
:101E800080F83E1000210163704708B590F83E10BD
:101E9000222901D0022008BD82684FF480539A4263
:101EA00001D1016921B1816A9A421BD04AB10AE08D
:101EB0000268816A5268C2F308020A80816A891C3A
:101EC00008E0026972B10268526802F07F020A708B
:101ED000816A491C8162C18D491E0904090CC185B2
:101EE00003D019E002685268F1E70168CA6822F07D
:101EF0002002CA600168CA6822F48072CA60016860
:101F00004A6922F001024A61202180F83E10016BEB
:101F1000012903D0FFF7DEFD002008BD0021016389
:101F20000168CA6822F01002CA6001680A68D20615
:101F300002D50A6849680091818DFFF73AFCEBE70A
:101F400070B5044600680169E26821F4405111430C
:101F500001612169A0680843616908432168CA6872
:101F600041F20C639A430243CA6020684169A26946
:101F700021F44071114341611E492068884202D119
:101F8000FEF7E2FF01E0FEF7CFFF00EBC00101EB3F
:101F90000012606864218000B2FBF0F3B3FBF1F340
:101FA0006FF018067343B2FBF0F5B2FBF0F605EBE9
:101FB0008305322303EB0515B5FBF1F5B6FBF1F60E
:101FC00005F0F00505EB0615B2FBF0F6B2FBF0F0FC
:101FD000B0FBF1F06FF01802504306EB800003EB0A
:101FE0000010B0FBF1F0216800F00F002844886079
:101FF00070BD00000038014081628285C2850021E9
:102000000164222280F83E2080F83C100168CA68F2
:1020100042F48072CA6001684A6942F001024A6172
:102020000068C16841F02001C160002070470000D5
:102030000148FFF7C1BB0000B0000020FEE7090720
:10204000090E002804DB00F1E02080F8001470473E
:1020500000F00F0000F1E02080F8141D704700220E
:1020600005E010F8013B491E1A44D2B289B200299A
:10207000F7D11046704700000EB5FEF755FDFFF78B
:102080003BFEFFF785FDFFF751FDBF48BD49002529
:1020900001604FF4E131C0E901150C21C560C0E9D0
:1020A00004518561C561FFF78DFC08B172B6FEE78A
:1020B000FFF7EAFD4FF47A60FEF71CFC4FF4005482
:1020C00000222146B148FEF71CFD00222146B048FF
:1020D000FEF717FD4FF4FA60FEF70CFCAA496FF00B
:1020E0000100483909680861A7484838FFF796F9A0
:1020F0004FF47A70FEF7FEFB0122A649A248FFF7D3
:10210000D3FCDFF890B2ABF10E0BA24E14270A36C7
:102110004FF6FF78358075805C4665739A4878384D
:10212000FEF7FEFA984841467838FEF75BFA964883
:102130007838FEF797F9800509D593487838FEF787
:1021400093F9617B36F81120104426F81100607B6A
:10215000401CC0B260730228E0D38B487838FEF789
:102160003FFB7F1EBFB20520FEF7C4FB002FD4D17A
:1021700031884FF01408B1FBF8F000F0B9FADFF83D
:102180001892494600F0C8FA6FF00B0A514600F069
:10219000C1FB804F123738607188B1FBF8F000F056
:1021A000A7FA494600F0B8FA514600F0B3FB786050
:1021B0004FF47A70FEF79EFB744E4FF48041304628
:1021C000FEF79AFC80B3002020704FF40041B14626
:1021D0003046FEF791FC40B30020704E6070202125
:1021E0003046FEF789FC28B30020A070102130464D
:1021F000FEF782FC00B30020E070E07B00287DD079
:10220000DFF88481E57308F14408052108F1040032
:10221000FFF725FF98F8091088422BD198F8031092
:10222000404601290AD025E000E001E00120CBE78B
:102230000120D2E70120D8E70120DDE70179C2299A
:1022400004D0C02911D0C12912D013E00121A174FA
:10225000E174B0F805104ABA4E490E310A80C279CD
:10226000CA7098F80800887004E00120207404E027
:1022700001206074207C012810D149A2257407CA6E
:102280008DE8070005210DF10200FFF7E8FE8DF84B
:102290000700092269463C48FFF726FC607CA046FF
:1022A000012811D141A088F8115007C88DE8070016
:1022B00005210DF10200FFF7D2FE8DF8070009227B
:1022C00069463148FFF710FC98F8120001281BD12D
:1022D00039A288F8125007CA8DE80700386800F064
:1022E000E7F98DF8050001208DF8060005210DF1B4
:1022F0000200FFF7B4FE8DF8070000E004E00922B9
:1023000069462148FFF7F0FB2E483968814203DC1B
:10231000796881427FF7F9AE00224FF400514F46B1
:102320004846FEF7EEFB00224FF400613046FEF710
:10233000E8FB00224FF480613046FEF7E2FB00220A
:1023400002213846FEF7DDFB002201213846FEF768
:10235000D8FB00224FF400713046FEF7D2FB00227A
:102360004FF480713046FEF7CCFB002280213046CE
:10237000FEF7C7FB002240213046FEF7C2FBE574A2
:10238000C3E6000000480040B0000020000C0140FF
:10239000001001400E00002033335340000801407C
:1023A0005500C00000000100AA0000005500C10057
:1023B00001000100AA0000005500C2000100010058
:1023C000AA0000000000A0402DE9F047484E4FF45D
:1023D0000061484DB079484C4F104FF400784FF4ED
:1023E000807930B1012814D0022843D0032837D196
:1023F0005AE001222846FEF784FB0122394628468E
:10240000FEF77FFB002202212046FEF77AFB002226
:102410000EE000222846FEF774FB002239462846CB
:10242000FEF76FFB012202212046FEF76AFB012224
:1024300001212046FEF765FB002241462846FEF7B3
:1024400060FB002249462846FEF75BFB0022802104
:102450002846FEF756FB002240212846FEF751FB96
:10246000B079401CC0B2B071032801D90020B0710E
:10247000BDE8F08700222846FEF743FB00223946DC
:102480002846FEF73EFB002202212046FEF739FBDC
:10249000002201212046FEF734FB01224146284656
:1024A000FEF72FFB0122CDE700222846FEF729FB8D
:1024B000002239462846FEF724FB0022022120464E
:1024C000FEF71FFB002201212046FEF71AFB002227
:1024D00041462846FEF715FB002249462846FEF7EE
:1024E00010FB012280212846FEF70BFB0122B3E7F7
:1024F0000000002000080140000C01402DE9F047D9
:10250000484E4FF40061484D70794F10474C4FF4DE
:1025100000784FF48079002860D0012844D0022848
:1025200011D0032836D101222846FEF7EAFA01220B
:1025300039462846FEF7E5FA002202212046FEF73A
:10254000E0FA00220EE000222846FEF7DAFA002226
:1025500039462846FEF7D5FA012202212046FEF729
:10256000D0FA012201212046FEF7CBFA0022414693
:102570002846FEF7C6FA002249462846FEF7C1FA69
:10258000002280212846FEF7BCFA0022402128467E
:10259000FEF7B7FA7079401CC0B27071032801D9F8
:1025A00000207071BDE8F08700222846FEF7A9FAE6
:1025B000002239462846FEF7A4FA002202212046CE
:1025C000FEF79FFA002201212046FEF79AFA012227
:1025D00041462846FEF795FA0122CDE7002228461B
:1025E000FEF78FFA002239462846FEF78AFA0022C3
:1025F00002212046FEF785FA002201212046FEF73F
:1026000080FA002241462846FEF77BFA002249461E
:102610002846FEF776FA012280212846FEF771FA55
:102620000122B3E70000002000080140000C014037
:1026300030B51A481A4A0146C57A897B01243DB152
:102640000023012D09D0022D10D0082D20D119E032
:10265000552901D19170C47230BD4C1E012C0FD888
:102660000F4BD9700223C372517030BDA1F1C0026B
:102670000173032A04D80A4A11710321C17230BDC3
:10268000C37230BDAA2902D1054DA972C473C372A9
:10269000C37A1A445B1C9170F2E70000000000202E
:1026A000F4000020014800F003B900BF0000C07F23
:1026B000C10DD1F19E0206DB4FEA002343F0004337
:1026C00023FA02F07047004207D54FEA4001B1F10A
:1026D000FE4F02D24FF00000704710B500F09DF899
:1026E00049922480002070476FEA20007047000064
:1026F000B0FA80F310FA03F2C3F19D030AD0D905B2
:1027000001EB1220530638BF704700F1010008BFEB
:1027100020F00100704700004FF47F0C1CEAD0123B
:102720001EBF1CEAD11392EA0C0F93EA0C0F00F0C3
:10273000478090EA010F48BF42F480724FF0004C8E
:102740004CEA00204CEA012102EB0302A0FB01133A
:10275000A2F50002002918BF43F001035B0028BF67
:102760004FEA330342EB22425FEA132C4CEBC25098
:102770002EBFBCEB436FB2F57C0F70474FEA036C82
:10278000BCF1004F08BF20F00100B2F57C0F38BF4C
:1027900070470BD582F0FF0212F5803FC8BF70472B
:1027A00000F1C040D8BF00F00040704700F5000CB9
:1027B0005FEA4C0C48BF7047B0F1C04000F073B8FE
:1027C00090EA010F0CEAD11348BF42F480726245CF
:1027D00038BF634504D280EA010000F00040704732
:1027E00010B500F01AF800BF8900013E00F007B8EC
:1027F00000F009B85FEA410C5FEA1C6C08D080EA7F
:10280000010000F050B85FEA400C5FEA1C6CF6D1A2
:102810004FF00040A0F5800070470EF1020E2EF040
:10282000030E5EF8044B244204D44FEA4102B2F195
:102830007F4F11D84FEA4003B3F17F4F0CD80ED130
:102840004FEAD07CB2F17F4F0CEB4C0C0CF1020C38
:1028500008BF4CEBD17C04E04FF0080C01E04FEADC
:10286000D17C0CEB4C0324FA03F404F00704B4F11C
:10287000040C06D20EEB840CBDE810404CF0010CA9
:102880006047DFE80CF0070802024FF00040A0F5B7
:10289000800010BD0846420018BFD2F1807288BF88
:1028A00000F0004010BDFF2141EAD050C005704744
:1028B0000CF00F03092B08BF082000F051800A2BF1
:1028C0000BD0082B18BF704708BF1CF0400F0AD070
:1028D0004FF000004FF0000170471CF0400F18BF90
:1028E0004FF0004070471CF0100F08D020F07043EC
:1028F00000F07F4242EAD3014FEA4370704700F094
:10290000604021F07F4242EA000201F07F4040EA4D
:10291000727070474FF0FF0212EAD0521CBF92F063
:10292000FF038B42C2BFD14200EBC1507047002A67
:102930000AD0002B0BD0002900F00040A4BF40F0CB
:10294000FE4040F40000704700F000407047430232
:102950004FF00B0C18BF4CF0806C7FF4A3AE7047A7
:102960001CF4801F11D01CF4E02F03D06FEACC318F
:10297000490070474FF04050EFF3008222F0704260
:1029800042EA000282F3008870474FF0000070476F
:10299000000000000000000001020304060708090F
:1029A0000000000001020304C82900080000002004
:1029B0003800000028010008002A00083800002024
:1029C000300700004401000801010101000000007F
:1029D00000000000000000000000000000000000F7
:1029E00000000000000000000000000000000000E7
:1029F0000100000010000000000000000024F400AE
:04000005080000ED02
:00000001FF
